:100A1600E4F50AF50B120F00120BB6120F53120F64
:100A260015E538C3940A4006E4F538120C6DE53630
:100A3600B40415E537B40210E50AC3940250040560
:100A46000A8005E4F50AF50BE50A24CF6012146066
:100A560060240270CC75220075230075243A80C18B
:100A6600752200752300752442E536B40513E53773
:100A7600B4020EE50BC394025004050B8003E4F5A3
:100A86000BE50B24CF601214601B240270937522B1
:100A96000075230075244A80887522007523007529
:100AA6002452020A2775220075230075245A020A69
:0D0AB60027752200752300752462020A27AF
:100D87003F065B4F666D7D077F6F777C395E7971B4
:100D97000040761E7038375C733E783D6750376E7B
:100DA700BF86DBCFE6EDFD87FFEF460102040810A3
:030DB70020408059
:100C130020303A01031100031100050C10020811E2
:100C230002230212100608110520040F0000000021
:100C33000000001000000000000000100000000091
:100C4300000000012100013800032200003A0139AD
:100C5300000125FF0137001026070B0F13060A0EAC
:090C63001205090D1104080C1022
:100F0000E4F5A0F58043A0A053A01F7580FF43A087
:050F10008053A01F2228
:100D4800E4F58043A0C053A01FAB22AA23A92485A1
:100D58003982F5831209A7900D8793F4F58043A093
:100D6800E053A01FE539900DB293F58043A0C0531E
:0F0D7800A01F0539E539D394074003E4F539226C
:0A0FA60085258043A08053A01F2280
:100C6D0075B00FE4F5C0E5B0F4540F6044E537C33B
:100C7D0094FF5002053720B002E4FE20B1027E0140
:100C8D0020B2027E0220B3027E0375B0F075C0FF64
:100C9D0020C402E4FF20C2027F0120B5027F0220A2
:100CAD00B4027F03EE25E025E024262FF8E6F53685
:060CBD0022E4F536F537D4
:010CC300220E
:100F7900C28CAF8CEFFEAD8AEDFFE4F58CF58AD219
:010F89008CDB
:010F8A002244
:100F5300438E805389F0438904E4F58AF58CC28D6E
:030F6300D28C220B
:100F1500438E4053890F758B20758DD1C28FD28E2C
:050F2500D2AFD2AB22A7
:03001B00020CC410
:100CC400C0E0C0F0C083C082C0D075D000C000C0F6
:100CD40001C002C003C004C005C006C00705381225
:100CE4000B4F120D48120FA6D007D006D005D00422
:100CF400D003D002D001D000D0D0D082D083D0F0A5
:030D0400D0E0320A
:100F6600E4FEC297EF1392A3EFC313FFD2970EBE10
:020F760008F081
:010F78002256
:100F3F00C29300C29700D29300120F66AF05120F33
:040F4F0066C29322C1
:0D0D0700540FAB22AA23A9241209E67F8312
:100D1400E4FDC29300C29700D29300120F66E4FF71
:100D2400C297EDC313FD30A303430580D2970FBFD1
:100D340008EEC29300C29700D29700C2A300D2A3C8
:030D440000AF05F8
:010D47002289
:100BB60075220075230075243AAB22AA23A9249036
:100BC60000011209A7FF12098EC454F02FFD7F847D
:100BD600120F3FAB22AA23A9249000031209A7C42F
:100BE60054F0FF9000041209A72FFD7F82120F3FD9
:100BF600AB22AA23A9249000061209A7C454F0FF29
:0D0C06009000071209A72FFD7F80020F3F0D
:100B4F0075220075230075243A7F85120D14EFC4AA
:100B5F00540FAB22AA23A9241209D47F85120D1496
:100B6F00EF900001120D07EFC4900003120D07EF75
:100B7F00540FAB22AA23A9249000041209E67F8107
:100B8F00120D14EFC4540FAB22AA23A92490000610
:100B9F001209E67F81120D14EF540FAB22AA23A97D
:070BAF00249000070209E693
:040E9A00D2A07F055E
:100E9E00000000000000000000000000000000AE96
:060EAE00071FEE70EB22AD
:0F0F8B00D2A1120E9AC2A17F05120E9EC2A02201
:0C0F9A00C2A1120E9AD2A17F05020E9E89
:020DE800AD0755
:100DEA00E4FCC2A07F05120E9EED30E704D2A1807A
:100DFA0002C2A17F05120E9ED2A0ED25E0FD7F055D
:090E0A00120E9E0CBC08DBC2A014
:010E130022BC
:100E7D00E4FC120E9AED25E0FD30A103430501C2FD
:0C0E8D00A07F05120E9E0CBC08E8AF050B
:010E99002236
:030F2A00120DE8BD
:100F2D00120E9AA2A1E433FDC2A07F05120E9EAF50
:010F3D0005AE
:010F3E002290
:100EE800C2A0EF24FF92A17F05120E9E120E9AC295
:080EF800A0D2A17F05020E9EAD
:100E3B00120F8B7F90120F2A7F01120F2A120F8B2A
:100E4B007F91120DE8120F2D120E7DE4FF120EE8AA
:030E5B00120E7DF7
:010E5E002271
:040EB4007F057E0038
:100EB800EF1FAA0670011E4A600BE4FDEDC3940CF7
:050EC80050EE0D80F763
:010ECD002202
:020E5F00A907E1
:100E6100E4FBC297E9139297120EB4D297E9C31328
:0C0E7100F90BBB08ED7F057E00020EB8F7
:100ECE00E4FBC297ECC313FCD29730970343048024
:090EDE00120EB40BBB08EBAF04CB
:010EE70022E8
:100E1400C200D2977F0C7E00120EB8C2977F507E1C
:100E240000120EB8D2977F0A7E00120EB8A29792D3
:060E340000120EB4A20042
:010E3A002295
:100DBA00120E147F44120E5F7FCC120E5F120E14B5
:100DCA007F44120E5F7FBE120E5FE508AD09FCEC90
:0D0DDA0012090BE4FBFA7980783D12080045
:010DE70022E9
:10080000EC4D6011E8497017ED33EC3304600DE4F2
:10081000FCFFFEFD22E933E8330470F80209791287
:10082000094458046009E4CC248150062850090288
:100830000983284003020980C0E0EB4A7044B98074
:1008400006D0E0FB02096FEF4E701CBD8008EBFF85
:10085000EAFEE9FD80EBE98DF0A4FEE5F00208E98F
:10086000E9CDF9EAFEEBFFEF89F0A4FCE5F0CE89D3
:10087000F0A42EFFE435F0CD89F0A42DFEE435F090
:100880008067EF4E7005BD80D780C3EF8BF0A4ACBE
:10089000F0EE8BF0A42CFCE435F0F8EF8AF0A42CF9
:1008A000E5F038FCE433CB8DF0A42CFCE5F03BF80C
:1008B000EE8AF0A42CFCE5F038F8E433CF89F0A4FC
:1008C0002CFCE5F038CF3400CE89F0A42FFFE5F002
:1008D0003EFEE433C98DF0A42EFEE5F039CD8AF05A
:1008E000A42FFFE5F03EFEE43DFD33D0E0FB5007D2
:1008F0000BBB000F020983EC2CFCEF33FFEE33FE41
:06090000ED33FD02095B6E
:1009060075F020800E75F010800575F0087D007E6C
:10091600007F003392D530D503120A08EC3340101D
:10092600EF33FFEE33FEED33FDEC33FCD5F0ED2275
:0E093600E5F0247EA2D513CC92E7CDCEFF22B1
:10094400E9D2E7C933E833F892D5EDD2E7CD33ECF9
:0709540033FC5002B2D52272
:10095B00EC30E7100FBF000C0EBE00080DBD0004FD
:10096B000BEB6014A2D5EB13FCED92E7FD2274FFA9
:10097B00FCFDFEFF22E480F8A2D574FF13FC7D8002
:03098B00E480EF16
:03000000020AC32E
:0C0AC300787FE4F6D8FD758169020B0A0B
:10098E00BB010689828A83E0225002E722BBFE0267
:09099E00E32289828A83E493229A
:1009A700BB010CE58229F582E5833AF583E0225005
:1009B70006E92582F8E622BBFE06E92582F8E2224F
:0D09C700E58229F582E5833AF583E4932269
:1009D400BB010689828A83F0225002F722BBFE0102
:0209E400F322FC
:1009E600F8BB010DE58229F582E5833AF583E8F047
:1009F600225006E92582C8F622BBFE05E92582C8F3
:020A0600F222DA
:0E0A0800C3E49FFFE49EFEE49DFDE49CFC22FF
:100ACF00020A16E493A3F8E493A34003F68001F21D
:100ADF0008DFF48029E493A3F85407240CC8C33328
:100AEF00C4540F4420C8834004F456800146F6DFF7
:100AFF00E4800B0102040810204080900C13E47E68
:100B0F00019360BCA3FF543F30E509541FFEE493EB
:100B1F00A360010ECF54C025E060A840B8E493A3B2
:100B2F00FAE493A3F8E493A3C8C582C8CAC583CADD
:100B3F00F0A3C8C582C8CAC583CADFE9DEE780BE95
:010C6C000087
:00000001FF
