:100ABB00120CEB7DA37F55120CD4E559C3940A405D
:100ACB00077F55120C8C8F087B007A0079318B24B1
:100ADB008A258926E508C4540F9000021209BBE54C
:0E0AEB0008540F9000031209BB120AF980C2D2
:100B94003F065B4F666D7D077F6F777C395E7971A9
:100BA4000040761E7038375C733E783D6750376E70
:0B0BB400BF86DBCFE6EDFD87FFEF46BC
:100A77000827010204081020408020283110101098
:100A8700101010101010101110101110101010105D
:100A97001010101010101010101010100C0F101054
:100AA700101010101001590002220000022F000040
:030AB7000121001A
:100CEB00438E4053890F758B20758DD1C28FD28E59
:050CFB00D2ABD2AF22D4
:100D0000E4F5A07580FF43A08053A01FF58043A0A9
:050D1000C053A01F22EA
:100AF900120D00AB24AA25A926852182758300122F
:100B0900098E900B9493F4F58043A0E053A01F74D1
:100B1900272521F8E6F58043A0C053A01F0521E54C
:090B290021C394084003E4F52106
:010B320022A0
:03001B00020CBD17
:100CBD00C0E005590523E523700205220530E53016
:070CCD007002052FD0E03298
:040C3E007F057E00B0
:100C4200EF1FAA0670011E4A600BE4FDEDC3940675
:050C520050EE0D80F7DB
:010C5700227A
:020BE600A9075D
:100BE800E4FBC294E9139294120C3ED294E9C31325
:0C0BF800F90BBB08ED7F057E00020C42EB
:100C5800E4FBC294ECC313FCD294309403430480A5
:090C6800120C3E0BBB08EBAF04BB
:010C71002260
:100BBF00C200D2947F0C7E00120C42C2947F507EF2
:100BCF0000120C42D2947F0A7E00120C42A2949221
:060BDF0000120C3EA20012
:010BE50022ED
:100B3300120BBF7FCC120BE67F44120BE6120BBFE6
:100B43007FCC120BE67FBE120BE6120C58A90712DC
:100B53000C58EFAD01FCE412090BE4FBFA79807841
:040B63003D12080037
:010B6700226B
:040C7200D2A07F0588
:100C7600000000000000000000000000000000AEC0
:060C8600071FEE70EB22D7
:0F0D1500D2A1120C72C2A17F05120C76C2A022CD
:0C0D2400C2A1120C72D2A17F05020C7655
:020B6800AD07D7
:100B6A00E4FCC2A07F05120C76ED30E704D2A18026
:100B7A0002C2A17F05120C76D2A0ED25E0FD7F0509
:090B8A00120C760CBC08DBC2A0C1
:010B9300223F
:100C0400E4FC120C72ED25E0FD30A103430501C2A2
:0C0C1400A07F05120C760CBC08E8AF05B0
:010C200022B1
:0B0C2100120B68120C2CAF03120B68C2
:100C2C00120C72A2A1E433FDC2A07F05120C76AFA8
:010C3C0005B2
:010C3D002294
:100CA500C2A0EF24FF92A17F05120C76120C72C22E
:080CB500A0D2A17F05020C761C
:100CD400AB05AA07120D157FA0120B68120C2CAFDE
:070CE40002120C21020D2495
:020C8C00AB07B4
:100C8E00120D157FA0120C21120D157FA1120B68EB
:060C9E00120C2C120C04E4
:010CA400222D
:10080000EC4D6011E8497017ED33EC3304600DE4F2
:10081000FCFFFEFD22E933E8330470F80209791287
:10082000094458046009E4CC248150062850090288
:100830000983284003020980C0E0EB4A7044B98074
:1008400006D0E0FB02096FEF4E701CBD8008EBFF85
:10085000EAFEE9FD80EBE98DF0A4FEE5F00208E98F
:10086000E9CDF9EAFEEBFFEF89F0A4FCE5F0CE89D3
:10087000F0A42EFFE435F0CD89F0A42DFEE435F090
:100880008067EF4E7005BD80D780C3EF8BF0A4ACBE
:10089000F0EE8BF0A42CFCE435F0F8EF8AF0A42CF9
:1008A000E5F038FCE433CB8DF0A42CFCE5F03BF80C
:1008B000EE8AF0A42CFCE5F038F8E433CF89F0A4FC
:1008C0002CFCE5F038CF3400CE89F0A42FFFE5F002
:1008D0003EFEE433C98DF0A42EFEE5F039CD8AF05A
:1008E000A42FFFE5F03EFEE43DFD33D0E0FB5007D2
:1008F0000BBB000F020983EC2CFCEF33FFEE33FE41
:06090000ED33FD02095B6E
:1009060075F020800E75F010800575F0087D007E6C
:10091600007F003392D530D5031209DDEC33401049
:10092600EF33FFEE33FEED33FDEC33FCD5F0ED2275
:0E093600E5F0247EA2D513CC92E7CDCEFF22B1
:10094400E9D2E7C933E833F892D5EDD2E7CD33ECF9
:0709540033FC5002B2D52272
:10095B00EC30E7100FBF000C0EBE00080DBD0004FD
:10096B000BEB6014A2D5EB13FCED92E7FD2274FFA9
:10097B00FCFDFEFF22E480F8A2D574FF13FC7D8002
:03098B00E480EF16
:030000000209EB07
:0C09EB00787FE4F6D8FD758159020A32CD
:10098E00BB010CE58229F582E5833AF583E022501E
:10099E0006E92582F8E622BBFE06E92582F8E22268
:0D09AE00E58229F582E5833AF583E4932282
:1009BB00F8BB010DE58229F582E5833AF583E8F072
:1009CB00225006E92582C8F622BBFE05E92582C81E
:0209DB00F22206
:0E09DD00C3E49FFFE49EFEE49DFDE49CFC222B
:1009F700020ABBE493A3F8E493A34003F68001F251
:100A070008DFF48029E493A3F85407240CC8C33300
:100A1700C4540F4420C8834004F456800146F6DFCF
:100A2700E4800B0102040810204080900A77E47EDE
:100A3700019360BCA3FF543F30E509541FFEE493C4
:100A4700A360010ECF54C025E060A840B8E493A38B
:100A5700FAE493A3F8E493A3C8C582C8CAC583CAB6
:100A6700F0A3C8C582C8CAC583CADFE9DEE780BE6E
:010ABA00003B
:00000001FF
