:100B1D003F065B4F666D7D077F6F777C395E797120
:100B2D000040761E7038375C733E783D6750376EE7
:0B0B3D00BF86DBCFE6EDFD87FFEF4633
:10088C00081E010204081020408020282B010203BE
:10089C00040506070810101110101110101010107C
:1008AC001010101010101010101010100C0F101041
:1008BC001010101010010800100E0405060708098E
:1008CC000A0B0C0D0E0F101112130229000001530C
:0908DC00000209000002260000E0
:100B5F00438E4053890F758B20758DD1C28FD28EE6
:050B6F00D2ABD2AF2261
:100B7400E4F5A07580FF43A08053A01FF58043A037
:050B8400C053A01F2278
:100A8200120B74AB0BAA0CA90D8508827583001298
:100A92000AF0900B1D93F4F58043A0E053A01F745D
:100AA2001E2508F8E6F58043A0C053A01F0508E5FF
:090AB20008C394084003E4F508B0
:010ABB002218
:1009760075B00FE4F5C0E5B0F4540F604EC3E52A38
:1009860094FFE52994005008052AE52A70020529F6
:1009960020B302E4FE20B2027E0120B1027E0220D4
:1009A600B0027E0375B0F075C0FF20C402E4FF20DC
:1009B600C3027F0120B5027F0220B4027F03EF2528
:1009C600E025E0240E2EF8E6F52822E4F528F529A0
:0209D600F52A00
:0109D80022FC
:03001B00020B488D
:100B4800C0E00553050AE50A700205090527E527EF
:070B580070020526D0E03217
:100A2E00E4F5791209D9120B5FC3E50A942CE50996
:100A3E009401401EE4F509F50A74542579F9E4F59C
:100A4E000BF50C890DAF790579EFC3941C4003E4C7
:100A5E00F579C3E52794E8E52694034008E4F526E6
:100A6E00F52712090EE553C3940140BAE4F553126B
:040A7E000A8280B2B6
:1008E50020255410101010101010100200020311D2
:1008F5000111010211030111020311050911050579
:0809050010101010101010106A
:100B9D00E4FEC297EF1392A3EFC313FFD2970EBEDD
:020BAD0008F04E
:010BAF002223
:100B8900C29300C29700D29300120B9DAF05120BBE
:040B99009DC2932244
:100ABC00E4FDC29300C29700D29300120B9DE4FF99
:100ACC00C297EDC313FD30A303430580D2970FBF2C
:100ADC0008EEC29300C29700D29700C2A300D2A323
:030AEC0000AF0553
:010AEF0022E4
:1009D900E55EC454F0255FFD7F8C120B89AD617F04
:1009E9008A120B89E563C454F02564FD7F88120BD4
:1009F90089E566C454F02567FD7F86120B89E56990
:100A0900C454F0256AFD7F84120B89E56CC454F047
:100A1900256DFD7F82120B89E56FC454F02570FDA9
:050A29007F80020B8933
:10090E007F8D120ABCEFC4540FF55EEF540FF55FE6
:10091E007F8B120ABC8F617F89120ABCEFC4540F01
:10092E00F563EF540FF5647F87120ABCEFC4540FC2
:10093E00F566EF540FF5677F85120ABCEFC4540FAE
:10094E00F569EF540FF56A7F83120ABCEFC4540F9A
:10095E00F56CEF540FF56D7F81120ABCEFC4540F86
:07096E00F56FEF540FF57067
:01097500225F
:03000000020800F3
:0C080000787FE4F6D8FD75817902084786
:100AF000BB010CE58229F582E5833AF583E02250BB
:100B000006E92582F8E622BBFE06E92582F8E22204
:0D0B1000E58229F582E5833AF583E493221E
:10080C00020A2EE493A3F8E493A34003F68001F2CA
:10081C0008DFF48029E493A3F85407240CC8C333ED
:10082C00C4540F4420C8834004F456800146F6DFBC
:10083C00E4800B010204081020408090088CE47EB8
:10084C00019360BCA3FF543F30E509541FFEE493B1
:10085C00A360010ECF54C025E060A840B8E493A378
:10086C00FAE493A3F8E493A3C8C582C8CAC583CAA3
:10087C00F0A3C8C582C8CAC583CADFE9DEE780BE5B
:01090D0000E9
:00000001FF
