:100A8900120DB0752400752500752649C3E5239418
:100A9900FAE522940040F5E4F522F523120CD78FEC
:100AA9000B8E0A8D098C081209447C007D0A120AF2
:100AB90026AB24AA25A926EF1209F2AF0BAE0AAD7F
:100AC90009AC081209447C007D0A120A26ED24208B
:100AD900AB24AA25A926900001120A04E4FFFE7D91
:100AE900207C41AB0BAA0AA909A80812080012091F
:100AF900447C007D0A120A26AB24AA25A926900067
:100B090002ED120A04E4FFFE7DC87C42AB0BAA0A7F
:100B1900A909A8081208001209447C007D0A120AD2
:100B290026AB24AA25A926900003ED120A04E4FFA6
:100B3900FE7D7A7C44AB0BAA0AA909A80812080011
:100B49001209447C007D0A120A26AB24AA25A9268B
:100B5900900004ED120A047F007E407D1C7C46ABA8
:100B69000BAA0AA909A8081208001209447C007DE9
:100B79000A120A26AB24AA25A926900005ED120A15
:040B890004020A95C3
:100D0C003F065B4F666D7D077F6F777C395E79712F
:100D1C000040761E7038375C733E783D6750376EF6
:0B0D2C00BF86DBCFE6EDFD87FFEF4642
:100C190008270102040810204080202831101010F4
:100C290010101010101010111010111010101010B9
:100C39001010101010101010101010100C0F1010B0
:100C490010101010100259000002220000022F009B
:040C59000001210075
:100DB000438E4053890F758B20758DD1C28FD28E93
:050DC000D2ABD2AF220E
:100DC500E4F5A07580FF43A08053A01FF58043A0E4
:050DD500C053A01F2225
:100C9D00120DC5AB24AA25A92685218275830012C4
:100CAD0009C5900D0C93F4F58043A0E053A01F747B
:100CBD00272521F8E6F58043A0C053A01F0521E5A7
:090CCD0021C394084003E4F52161
:010CD60022FB
:03001B00020C5E76
:100C5E00C0E0C083C082C0D075D000C000C001C04B
:100C6E0002C003055AE55A700205590523E52370A3
:100C7E000205220530E5307002052F120C9DD003BF
:0F0C8E00D002D001D000D0D0D082D083D0E032BD
:040D7C007F057E0071
:100D8000EF1FAA0670011E4A600BE4FDEDC3940C30
:050D900050EE0D80F79C
:010D9500223B
:020D5E00A907E3
:100D6000E4FBC294E9139294120D7CD294E9C3136C
:0C0D7000F90BBB08ED7F057E00020D8032
:100D9600E4FBC294ECC313FCD29430940343048066
:090DA600120D7C0BBB08EBAF043D
:010DAF002221
:100D3700C200D2947F0C7E00120D80C2947F507E39
:100D470000120D80D2947F0A7E00120D80A2949229
:060D570000120D7CA20059
:010D5D002273
:100CD700120D377FCC120D5E7F44120D5E120D3759
:100CE7007FCC120D5E7FBE120D5E120D96A9071204
:100CF7000D96EFAD01FCE412090BE4FBFA7980785D
:040D07003D12080091
:010D0B0022C5
:10080000EC4D6011E8497017ED33EC3304600DE4F2
:10081000FCFFFEFD22E933E8330470F80209B01250
:10082000097B58046009E4CC248150062850090251
:1008300009BA2840030209B7C0E0EB4A7044B98006
:1008400006D0E0FB0209A6EF4E701CBD8008EBFF4E
:10085000EAFEE9FD80EBE98DF0A4FEE5F00208E98F
:10086000E9CDF9EAFEEBFFEF89F0A4FCE5F0CE89D3
:10087000F0A42EFFE435F0CD89F0A42DFEE435F090
:100880008067EF4E7005BD80D780C3EF8BF0A4ACBE
:10089000F0EE8BF0A42CFCE435F0F8EF8AF0A42CF9
:1008A000E5F038FCE433CB8DF0A42CFCE5F03BF80C
:1008B000EE8AF0A42CFCE5F038F8E433CF89F0A4FC
:1008C0002CFCE5F038CF3400CE89F0A42FFFE5F002
:1008D0003EFEE433C98DF0A42EFEE5F039CD8AF05A
:1008E000A42FFFE5F03EFEE43DFD33D0E0FB5007D2
:1008F0000BBB000F0209BAEC2CFCEF33FFEE33FE0A
:06090000ED33FD02099237
:1009060075F020800E75F010800575F0087D007E6C
:10091600007F003392D530D503120A7BEC334010AA
:10092600EF33FFEE33FEED33FDEC33FCD5F0ED2275
:0E093600E5F0247EA2D513CC92E7CDCEFF22B1
:10094400EDD2E7CD33EC3392D524814006E4FFFEAB
:10095400FDFC22FCE4CFCECDCC24E0501174FF800A
:10096400EDC3CC13CCCD13CDCE13CECF13CF0470A7
:07097400F030D5DE020A7B22
:10097B00E9D2E7C933E833F892D5EDD2E7CD33ECC2
:07098B0033FC5002B2D5223B
:10099200EC30E7100FBF000C0EBE00080DBD0004C6
:1009A2000BEB6014A2D5EB13FCED92E7FD2274FF72
:1009B200FCFDFEFF22E480F8A2D574FF13FC7D80CB
:0309C200E480EFDF
:03000000020B8D63
:0C0B8D00787FE4F6D8FD75815A020BD485
:1009C500BB010CE58229F582E5833AF583E02250E7
:1009D50006E92582F8E622BBFE06E92582F8E22231
:0D09E500E58229F582E5833AF583E493224B
:1009F200BB010689828A83F0225002F722BBFE01E4
:020A0200F322DD
:100A0400F8BB010DE58229F582E5833AF583E8F028
:100A1400225006E92582C8F622BBFE05E92582C8D4
:020A2400F222BC
:100A2600BC000BBE0029EF8DF084FFADF022E4CCB4
:100A3600F875F008EF2FFFEE33FEEC33FCEE9DEC7D
:100A4600984005FCEE9DFE0FD5F0E9E4CEFD22EDC3
:100A5600F8F5F0EE8420D21CFEADF075F008EF2F0D
:100A6600FFED33FD4007985006D5F0F222C398FDFE
:050A76000FD5F0EA229B
:0E0A7B00C3E49FFFE49EFEE49DFDE49CFC228C
:100B9900020A89E493A3F8E493A34003F68001F2DF
:100BA90008DFF48029E493A3F85407240CC8C3335D
:100BB900C4540F4420C8834004F456800146F6DF2C
:100BC900E4800B0102040810204080900C19E47E97
:100BD900019360BCA3FF543F30E509541FFEE49321
:100BE900A360010ECF54C025E060A840B8E493A3E8
:100BF900FAE493A3F8E493A3C8C582C8CAC583CA13
:100C0900F0A3C8C582C8CAC583CADFE9DEE780BECA
:010C5D000096
:00000001FF
