:10080000E4F525F526120AADE524C3940A4061E417
:10081000F5241209DBE521B40510E5236402452225
:1008200070080526E52670020525E521B40410E5CB
:1008300023640245227008E526152670021525E579
:1008400021B40613E52364024522700B74022526A9
:10085000F526E43525F525E521B40714E5236402E2
:100860004522700C74FE2526F52674FF3525F525E6
:10087000AE25AF267C007D0A1209507C007D0A124D
:100880000950EF4E60057D01120A8EAE25AF267C21
:10089000007D0A1209507C007D0A120950ED4C605F
:1008A00007AF057D02120A8EAE25AF267C007D0AB9
:1008B000120950ED4C7003020808AF057D03120ABF
:0408C0008E02080894
:100A3E003F065B4F666D7D077F6F777C395E797100
:100A4E000040761E7038375C733E783D6750376EC7
:0B0A5E00BF86DBCFE6EDFD87FFEF4613
:100A69000918000102040810204080100804050636
:100A79000708090A0B0C0D0E0F10111213022200A0
:040A89000001240044
:100AAD00438E4053890F758B20758DD1C28FD28E99
:050ABD00D2ABD2AF2214
:100AC200E4F5A07580FF43A08053A01FF58043A0EA
:050AD200C053A01F222B
:100A8E00120AC2EF900A3E93F4F58043A0E053A001
:0F0A9E001F74182DF8E6F58043A0C053A01F2247
:1009DB0075B00FE4F5C0E5B0F4540F604EC3E523DA
:1009EB0094FFE522940050080523E52370020522AD
:1009FB0020B302E4FE20B2027E0120B1027E02206F
:100A0B00B0027E0375B0F075C0FF20C402E4FF2076
:100A1B00C3027F0120B5027F0220B4027F03EF25C2
:100A2B00E025E024082EF8E6F52122E4F521F52255
:020A3B00F523A1
:010A3D002296
:03001B00020AD7FF
:030AD700052432C1
:030000000208C42F
:0C08C400787FE4F6D8FD75812602090B50
:10095000C2D5EC30E709B2D5E4C39DFDE49CFCEEC2
:1009600030E715B2D5E4C39FFFE49EFE120986C3AB
:10097000E49DFDE49CFC800312098630D507C3E4A6
:060980009FFFE49EFE2231
:1008D000020800E493A3F8E493A34003F68001F236
:1008E00008DFF48029E493A3F85407240CC8C33329
:1008F000C4540F4420C8834004F456800146F6DFF8
:10090000E4800B0102040810204080900A69E47E14
:10091000019360BCA3FF543F30E509541FFEE493EC
:10092000A360010ECF54C025E060A840B8E493A3B3
:10093000FAE493A3F8E493A3C8C582C8CAC583CADE
:10094000F0A3C8C582C8CAC583CADFE9DEE780BE96
:010A8D000068
:10098600BC000BBE0029EF8DF084FFADF022E4CC55
:10099600F875F008EF2FFFEE33FEEC33FCEE9DEC1E
:1009A600984005FCEE9DFE0FD5F0E9E4CEFD22ED64
:1009B600F8F5F0EE8420D21CFEADF075F008EF2FAE
:1009C600FFED33FD4007985006D5F0F222C398FD9F
:0509D6000FD5F0EA223C
:00000001FF
